:020000040800F2
:100000000008002089010008ED010008ED0100084A
:10001000ED010008ED010008ED01000800000000FE
:10002000000000000000000000000000ED010008DA
:10003000ED01000800000000ED010008ED010008DE
:10004000ED010008ED010008ED010008ED010008D8
:10005000ED010008ED010008ED010008ED010008C8
:10006000ED010008ED010008ED010008ED010008B8
:10007000ED010008ED010008ED010008ED010008A8
:10008000ED010008ED010008ED010008ED01000898
:10009000ED010008ED010008ED010008ED01000888
:1000A000ED010008ED010008ED010008ED01000878
:1000B00029020008ED010008F5010008ED01000823
:1000C000ED010008ED010008ED010008ED01000858
:1000D000ED010008ED010008ED010008ED01000848
:1000E000ED010008ED010008ED010008ED01000838
:1000F000ED010008ED010008ED010008ED01000828
:10010000ED010008ED010008ED010008ED01000817
:10011000ED010008ED010008ED010008ED01000807
:10012000ED010008ED010008ED010008ED010008F7
:10013000ED010008ED010008ED010008ED010008E7
:10014000ED010008ED010008ED010008ED010008D7
:10015000ED010008ED010008ED010008ED010008C7
:10016000ED010008ED010008ED010008ED010008B7
:10017000ED010008ED010008ED010008ED010008A7
:10018000ED010008ED01000880B582B000AF124B10
:100190007B60124B3B600BE07B681A683B681A601F
:1001A0003B6803F104033B607B6803F104037B605D
:1001B0003A680B4B9A42EFD30A480B494FF00002C2
:1001C0008842B8BF40F8042BFADB00F047F807F18B
:1001D0000807BD4680BD00BF480800080000002099
:1001E00000000020000000200000002080B400AFCC
:1001F000FEE700BF80B500AF09484FF0010100F0F5
:10020000DFFA0346002B0AD005484FF0010100F049
:1002100009FB044B034A526982F400425A6180BDD3
:1002200000080040000C024080B500AF4FF0804055
:100230004FF0010100F0C4FA0346002B0BD04FF041
:1002400080404FF0010100F0EDFA034B024A526981
:1002500082F400525A6180BD000C024080B500AFAC
:1002600000F006F800F028F800F064F8FEE700BFA0
:1002700080B582B000AF4FF008004FF0010100F0F0
:1002800097F84FF420433B604FF001033B714FF070
:100290000003BB714FF00003FB714FF003037B7150
:1002A0003B460448194600F0C7F807F10807BD4669
:1002B00080BD00BF000C024080B584B000AF4FF09D
:1002C0001E033B734FF000037B734FF00103BB73BE
:1002D0004FF00103FB7307F10C03184600F050F9CF
:1002E0004FF004004FF0010100F084F844F61F6362
:1002F0007B6040F2DB533B804FF000033B814FF0CB
:1003000000037B803B460A48194600F0A5F90848DF
:100310004FF001014FF0010200F02CFA04484FF0B9
:10032000010100F007FA07F11007BD4680BD00BFCC
:100330000008004080B584B000AF4FF01C033B7351
:100340004FF000037B734FF00103BB734FF00103C9
:10035000FB7307F10C03184600F012F94FF001008F
:100360004FF0010100F046F844F61F637B604FF048
:10037000F9033B804FF000033B814FF000037B808B
:100380003B464FF08040194600F066F94FF0804040
:100390004FF001014FF0010200F0ECF94FF0804006
:1003A0004FF0010100F0C6F907F11007BD4680BD0E
:1003B00080B483B000AF78600B46FB70FB78002BF5
:1003C00007D00B4B0A4A116B7A6841EA02021A63A2
:1003D00008E0074B064A116B7A686FEA020201EAED
:1003E00002021A6307F10C07BD4680BC704700BFCC
:1003F0000038024080B483B000AF78600B46FB70D9
:10040000FB78002B07D00B4B0A4A116C7A6841EA43
:1004100002021A6408E0074B064A116C7A686FEA18
:10042000020201EA02021A6407F10C07BD4680BC11
:10043000704700BF0038024080B487B000AF7860DA
:1004400039604FF000037B614FF000033B614FF0D8
:100450000003FB604FF000037B6187E07B694FF096
:10046000010202FA03F33B613B681A683B6902EA46
:100470000303FB60FA683B699A4273D17B681A6890
:100480007B694FEA43034FF0030101FA03F36FEA7C
:1004900003031A407B681A607B681A683B681B7903
:1004A00019467B694FEA430301FA03F31A437B6859
:1004B0001A603B681B79012B03D03B681B79022B28
:1004C00034D17B689A687B694FEA43034FF003019C
:1004D00001FA03F36FEA03031A407B689A607B68B2
:1004E0009A683B685B7919467B694FEA430301FAD6
:1004F00003F31A437B689A607B685A687B699BB2F6
:100500004FF0010101FA03F36FEA03031A407B681D
:100510005A607B685A683B689B7919467B699BB235
:1005200001FA03F39BB21A437B685A607B68DA686E
:100530007B699BB24FEA43034FF0030101FA03F3D7
:100540006FEA03031A407B68DA607B68DA683B680D
:10055000DB7919467B694FEA430301FA03F31A4337
:100560007B68DA607B6903F101037B617B690F2B98
:100570007FF674AF07F11C07BD4680BC704700BF13
:1005800080B485B000AF78604FF00003FB734FF08C
:100590000003BB734FF00F037B737B68DB78002B8A
:1005A0003ED02B4BDB686FEA030303F4E0634FEAB2
:1005B0001323FB73FB7BC3F10403BB737A7BFB7BCD
:1005C00042FA03F37B737B685B781A46BB7B02FAC3
:1005D00003F3FB737B689A787B7B02EA0303DAB24E
:1005E000FB7B42EA0303FB73FB7B4FEA0313FB73C2
:1005F000184A7B681B78D318FA7B83F80023154BC5
:100600007A6812784FEA5212D2B27968097801F00A
:100610001F014FF0010000FA01F143F8221011E030
:100620000C4B7A6812784FEA5212D2B27968097884
:1006300001F01F014FF0010000FA01F102F1200268
:1006400043F8221007F11407BD4680BC704700BF75
:1006500000ED00E000E100E080B485B000AF78601C
:1006600039604FF00003FB817B681B88FB817A684F
:10067000294B9A4213D07A68284B9A420FD07B6854
:10068000B3F1804F0BD07A68254B9A4207D07A6835
:10069000244B9A4203D07A68234B9A4209D1FB89B2
:1006A00023F07003FB813B685A88FB8942EA03030D
:1006B000FB817A681D4B9A420DD07A681C4B9A4296
:1006C00009D0FB8923F44073FB813B681A89FB89BD
:1006D00042EA0303FB817B68FA891A803B685A6807
:1006E0007B68DA623B681A887B681A857A680A4BED
:1006F0009A4203D07A68094B9A4204D13B689B7AAC
:100700001A467B681A867B684FF001029A8207F1CD
:100710001407BD4680BC7047000001400004014042
:100720000004004000080040000C004000100040A1
:100730000014004080B483B000AF78600B46FB70BB
:10074000FB78002B08D07B681B889BB243F0010329
:100750009AB27B681A8007E07B681B889BB223F003
:1007600001039AB27B681A8007F10C07BD4680BC72
:10077000704700BF80B483B000AF786013460A466C
:100780007A807B707B78002B09D07B689B899AB23A
:100790007B8842EA03039AB27B689A810BE07B680C
:1007A0009B899AB27B886FEA03039BB202EA030338
:1007B0009AB27B689A8107F10C07BD4680BC7047EE
:1007C00080B485B000AF78600B467B804FF00003AB
:1007D000FB734FF00003BB814FF000037B817B680C
:1007E0001B8A9AB27B8802EA0303BB817B689B89E0
:1007F0009AB27B8802EA03037B81BB89002B06D077
:100800007B89002B03D04FF00103FB7302E04FF014
:100810000003FB73FB7B184607F11407BD4680BC41
:10082000704700BF80B483B000AF78600B467B8018
:100830007B886FEA03039AB27B681A8207F10C0780
:08084000BD4680BC704700BFFB
:0400000508000000EF
:00000001FF
